:020000040800F2
:1000000000000220A1850008AD810008AF81000832
:10001000B1810008B3810008B5810008000000002C
:10002000000000000000000000000000B781000890
:10003000B981000800000000BB810008BD810008F4
:10004000F1850008F1850008F1850008F1850008B8
:10005000F1850008F1850008F1850008F1850008A8
:10006000F1850008F1850008F1850008F185000898
:10007000F1850008F1850008F1850008F185000888
:10008000F1850008F1850008F1850008F185000878
:10009000F1850008F1850008F1850008F185000868
:1000A000F1850008F1850008F1850008F185000858
:1000B000F1850008F1850008F1850008F185000848
:1000C000F1850008F1850008F1850008F185000838
:1000D000F1850008F1850008F1850008F185000828
:1000E000F1850008F1850008F1850008F185000818
:1000F000F1850008F1850008F1850008F185000808
:10010000F1850008F1850008F1850008F1850008F7
:10011000F1850008F1850008F1850008F1850008E7
:10012000F1850008F1850008F1850008F1850008D7
:10013000F1850008F1850008F1850008F1850008C7
:10014000F1850008F1850008F1850008C5810008E7
:10015000F1850008F1850008F1850008F1850008A7
:10016000F1850008F1850008F1850008F185000897
:10017000F1850008F1850008F18500080000000005
:08018000F1850008F18500087B
:1001900010B5054C237833B9044B13B10448AFF3C1
:1001A00000800123237010BD080200200000000021
:1001B0008093000808B5034B1BB103490348AFF314
:1001C000008008BD000000000C02002080930008A1
:1001D000034613F8012B002AFBD1181A0138704787
:1001E00001F0FF01102A2BDB10F0070F08D010F8E8
:1001F000013B013A8B422DD010F0070F42B3F6D1EC
:10020000F0B441EA012141EA014122F007047FF004
:1002100000070023F0E80256083C85EA010586EA5B
:10022000010685FA47F5A3FA87F586FA47F6A5FA97
:1002300087F68EB9EED1F0BC01F0FF0102F00702A3
:1002400032B110F8013B013A83EA010313B1F8D14E
:100250000020704701387047002D06BF354603382F
:10026000073815F0010F07D1013015F4807F02BF68
:10027000013015F4C03F0130F0BC0138704700BFB9
:1002800081F0004102E000BF83F0004330B54FEA47
:1002900041044FEA430594EA050F08BF90EA020FB4
:1002A0001FBF54EA000C55EA020C7FEA645C7FEA47
:1002B000655C00F0E2804FEA5454D4EB5555B8BF6A
:1002C0006D420CDD2C4480EA020281EA030382EADB
:1002D000000083EA010180EA020281EA0303362D6D
:1002E00088BF30BD11F0004F4FEA01314FF4801C40
:1002F0004CEA113102D0404261EB410113F0004F52
:100300004FEA03334CEA133302D0524263EB430308
:1003100094EA050F00F0A780A4F10104D5F1200EA6
:100320000DDB02FA0EFC22FA05F2801841F1000101
:1003300003FA0EF2801843FA05F359410EE0A5F1D5
:1003400020050EF1200E012A03FA0EFC28BF4CF006
:10035000020C43FA05F3C01851EBE37101F00045BC
:1003600007D54FF0000EDCF1000C7EEB00006EEBC9
:100370000101B1F5801F1BD3B1F5001F0CD3490853
:100380005FEA30004FEA3C0C04F101044FEA4452AA
:1003900012F5800F80F09A80BCF1004F08BF5FEA31
:1003A000500C50F1000041EB045141EA050130BD11
:1003B0005FEA4C0C404141EB010111F4801FA4F1B4
:1003C0000104E9D191F0000F04BF01460020B1FA09
:1003D00081F308BF2033A3F10B03B3F120020CDA41
:1003E0000C3208DD02F1140CC2F10C0201FA0CF01F
:1003F00021FA02F10CE002F11402D8BFC2F1200C84
:1004000001FA02F120FA0CFCDCBF41EA0C01904039
:10041000E41AA2BF01EB0451294330BD6FEA040482
:100420001F3C1CDA0C340EDC04F11404C4F120026D
:1004300020FA04F001FA02F340EA030021FA04F37F
:1004400045EA030130BDC4F10C04C4F1200220FAD6
:1004500002F001FA04F340EA0300294630BD21FA14
:1004600004F0294630BD94F0000F83F4801306BFDA
:1004700081F480110134013D4EE77FEA645C18BFCE
:100480007FEA655C29D094EA050F08BF90EA020F65
:1004900005D054EA000C04BF1946104630BD91EA5D
:1004A000030F1EBF0021002030BD5FEA545C05D160
:1004B0004000494128BF41F0004130BD14F580049F
:1004C0003CBF01F5801130BD01F0004545F0FE4113
:1004D00041F470014FF0000030BD7FEA645C1ABF48
:1004E000194610467FEA655C1CBF0B46024650EA7F
:1004F000013406BF52EA033591EA030F41F40021AB
:1005000030BD00BF90F0000F04BF0021704730B530
:100510004FF4806404F132044FF000054FF0000105
:1005200050E700BF90F0000F04BF0021704730B5C6
:100530004FF4806404F1320410F0004548BF40429B
:100540004FF000013EE700BF42004FEAE2014FEAF0
:1005500031014FEA02701FBF12F07F4393F07F4FCB
:1005600081F06051704732F07F4208BF704793F0CE
:100570007F4F04BF41F40021704730B54FF46074E1
:1005800001F0004521F000411CE700BF50EA0102E4
:1005900008BF704730B54FF000050AE050EA01028D
:1005A00008BF704730B511F0004502D5404261EBFD
:1005B00041014FF4806404F132045FEA915C3FF43E
:1005C000D8AE4FF003025FEADC0C18BF03325FEADB
:1005D000DC0C18BF033202EBDC02C2F1200300FA8C
:1005E00003FC20FA02F001FA03FE40EA0E0021FAB1
:1005F00002F11444BDE600BF70B54FF0FF0C4CF49F
:10060000E06C1CEA11541DBF1CEA135594EA0C0F50
:1006100095EA0C0F00F0DEF82C4481EA030621EA8B
:100620004C5123EA4C5350EA013518BF52EA0335C6
:1006300041F4801143F4801338D0A0FB02CE4FF078
:100640000005E1FB02E506F00042E0FB03E54FF0A8
:100650000006E1FB03569CF0000F18BF4EF0010EA0
:10066000A4F1FF04B6F5007F64F5407404D25FEA9C
:100670004E0E6D4146EB060642EAC62141EA55514F
:100680004FEAC52040EA5E504FEACE2EB4F1FD0C91
:1006900088BFBCF5E06F1ED8BEF1004F08BF5FEA0F
:1006A000500E50F1000041EB045170BD06F00046C1
:1006B00046EA010140EA020081EA0301B4EB5C046E
:1006C000C2BFD4EB0C0541EA045170BD41F4801166
:1006D0004FF0000E013C00F3AB8014F1360FDEBF8B
:1006E000002001F0004170BDC4F10004203C35DA67
:1006F0000C341BDC04F11404C4F1200500FA05F3EA
:1007000020FA04F001FA05F240EA020001F000428A
:1007100021F0004110EBD37021FA04F642EB060100
:100720005EEA430E08BF20EAD37070BDC4F10C042A
:10073000C4F1200500FA04F320FA05F001FA04F2EE
:1007400040EA020001F0004110EBD37041F10001DA
:100750005EEA430E08BF20EAD37070BDC4F12005E5
:1007600000FA05F24EEA020E20FA04F301FA05F24D
:1007700043EA020321FA04F001F0004121FA04F2F5
:1007800020EA020000EBD3705EEA430E08BF20EAC5
:10079000D37070BD94F0000F0FD101F000464000FF
:1007A00041EB010111F4801F08BF013CF7D041EA81
:1007B000060195F0000F18BF704703F00046520085
:1007C00043EB030313F4801F08BF013DF7D043EA56
:1007D0000603704794EA0C0F0CEA135518BF95EA0C
:1007E0000C0F0CD050EA410618BF52EA4306D1D193
:1007F00081EA030101F000414FF0000070BD50EAB2
:10080000410606BF1046194652EA430619D094EA3B
:100810000C0F02D150EA013613D195EA0C0F05D125
:1008200052EA03361CBF104619460AD181EA030179
:1008300001F0004141F0FE4141F470014FF0000031
:1008400070BD41F0FE4141F4780170BD70B54FF0CC
:10085000FF0C4CF4E06C1CEA11541DBF1CEA13554C
:1008600094EA0C0F95EA0C0F00F0A7F8A4EB05042E
:1008700081EA030E52EA03354FEA013100F0888025
:100880004FEA03334FF0805545EA131343EA1263EE
:100890004FEA022245EA111545EA10654FEA0026A3
:1008A0000EF000419D4208BF964244F1FD0404F55C
:1008B000407402D25B084FEA3202B61A65EB0305B8
:1008C0005B084FEA32024FF480104FF4002CB6EB75
:1008D000020E75EB030E22BFB61A754640EA0C00F5
:1008E0005B084FEA3202B6EB020E75EB030E22BF35
:1008F000B61A754640EA5C005B084FEA3202B6EB76
:10090000020E75EB030E22BFB61A754640EA9C0034
:100910005B084FEA3202B6EB020E75EB030E22BF04
:10092000B61A754640EADC0055EA060E18D04FEAC2
:10093000051545EA16754FEA06164FEAC30343EA62
:1009400052734FEAC2025FEA1C1CC0D111F4801F2F
:100950000BD141EA00014FF000004FF0004CB6E728
:1009600011F4801F04BF01430020B4F1FD0C88BFC7
:10097000BCF5E06F3FF6AFAEB5EB030C04BFB6EBD2
:10098000020C5FEA500C50F1000041EB045170BDC5
:100990000EF0004E4EEA113114EB5C04C2BFD4EBF2
:1009A0000C0541EA045170BD41F480114FF0000E76
:1009B000013C90E645EA060E8DE60CEA135594EAF2
:1009C0000C0F08BF95EA0C0F3FF43BAF94EA0C0FF5
:1009D0000AD150EA01347FF434AF95EA0C0F7FF46A
:1009E00025AF104619462CE795EA0C0F06D152EABE
:1009F00003353FF4FDAE1046194622E750EA4106A2
:100A000018BF52EA43067FF4C5AE50EA41047FF4B2
:100A10000DAF52EA43057FF4EBAE12E74FF0FF3C17
:100A200006E000BF4FF0010C02E000BF4FF0010CE8
:100A30004DF804CD4FEA410C7FEA6C5C4FEA430C61
:100A400018BF7FEA6C5C1BD001B050EA410C0CBFB0
:100A500052EA430C91EA030F02BF90EA020F002012
:100A6000704710F1000F91EA030F58BF994208BF79
:100A700090422CBFD8176FEAE37040F00100704736
:100A80004FEA410C7FEA6C5C02D150EA013C07D18D
:100A90004FEA430C7FEA6C5CD6D152EA033CD3D0D8
:100AA0005DF8040B704700BF8446104662468C46D2
:100AB0001946634600E000BF01B5FFF7B7FF002805
:100AC00048BF10F1000F01BD4DF808EDFFF7F4FF2E
:100AD0000CBF012000205DF808FB00BF4DF808EDB9
:100AE000FFF7EAFF34BF012000205DF808FB00BFDC
:100AF0004DF808EDFFF7E0FF94BF012000205DF8FE
:100B000008FB00BF4DF808EDFFF7CEFF94BF0120B2
:100B100000205DF808FB00BF4DF808EDFFF7C4FFAB
:100B200034BF012000205DF808FB00BF4FEA410CF4
:100B30007FEA6C5C02D150EA013C0AD14FEA430CD7
:100B40007FEA6C5C02D152EA033C02D14FF0000014
:100B500070474FF0010070474FEA410212F5001252
:100B600015D211D56FF47873B3EB625212D94FEAF4
:100B7000C12343F0004343EA505311F0004F23FADE
:100B800002F018BF404270474FF00000704750EA33
:100B9000013005D111F0004008BF6FF000407047F0
:100BA0004FF00000704700BF53B94AB9002908BF91
:100BB00000281CBF4FF0FF314FF0FF3000F072B93A
:100BC000ADF1080C6DE904CE00F006F8DDF804E0A4
:100BD000DDE9022304B070472DE9F047089E044682
:100BE0008846002B4BD18A42154667D9B2FA82F269
:100BF0004AB1C2F1200701FA02F320FA07F7954043
:100C000047EA030894404FEA154E230CB8FBFEF761
:100C10001FFA85FC0EFB178843EA084307FB0CF11B
:100C2000994209D9EB1807F1FF3080F01B819942F6
:100C300040F21881023F2B445B1AA4B2B3FBFEF0D2
:100C40000EFB103344EA034400FB0CFCA44509D915
:100C50002C1900F1FF3380F00781A44540F2048194
:100C600002382C4440EA0740A4EB0C0400271EB1D4
:100C7000D4400023C6E900433946BDE8F0878B42E3
:100C800009D9002E00F0EB800027C6E900013846A4
:100C90003946BDE8F087B3FA83F7002F47D18B427E
:100CA00002D3824200F2FA80841A61EB030301202E
:100CB0009846002EE0D0C6E90048DDE702B9FFDE25
:100CC000B2FA82F2002A40F08F80491B4FEA154E9B
:100CD0001FFA85F80127B1FBFEFC230C0EFB1C114B
:100CE00043EA014308FB0CF1994207D9EB180CF1D8
:100CF000FF3002D2994200F2CD808446591AA3B245
:100D0000B1FBFEF00EFB101443EA044408FB00F8AC
:100D1000A04507D92C1900F1FF3302D2A04500F2FB
:100D2000B6801846A4EB080440EA0C409FE7C7F1E0
:100D3000200CBB4022FA0CFE4EEA030E01FA07F427
:100D400020FA0CF521FA0CF34FEA1E482543B3FBB9
:100D5000F8F92C0C08FB19331FFA8EFA44EA034306
:100D600009FB0AF49C4202FA07F200FA07F10BD9D8
:100D70001EEB030309F1FF3080F087809C4240F2B4
:100D80008480A9F1020973441B1BADB2B3FBF8F0D8
:100D900008FB103345EA034400FB0AFAA24508D9D0
:100DA0001EEB040400F1FF336BD2A24569D902386F
:100DB000744440EA0940A0FB0289A4EB0A044C45B4
:100DC000C2464B4654D351D0002E69D0B1EB0A0530
:100DD00064EB030404FA0CFCFD40FC404CEA0505FE
:100DE000C6E90054002747E7C2F1200320FA03F7C1
:100DF000954001FA02F021FA03F34FEA154E384309
:100E0000010CB3FBFEF71FFA85F80EFB173341EA1E
:100E1000034107FB08F38B4204FA02F407D969186F
:100E200007F1FF3C2FD28B422DD9023F2944CB1A28
:100E300081B2B3FBFEF00EFB103341EA034100FB2D
:100E400008F38B4207D9691800F1FF3C17D28B4297
:100E500015D902382944C91A40EA07473BE7374603
:100E6000304609E70746E7E61846FBE64145ABD2C0
:100E7000B8EB020A69EB0E0201381346A4E760469C
:100E8000E9E7184695E76746D1E781467CE70238EF
:100E90002C4447E7ACF1020C2B442FE7384608E717
:100EA0003746E9E6704700BF70B50D4E0D4CA41BE8
:100EB000A4100025A54209D10B4E0C4C08F060FA95
:100EC000A41BA4100025A54205D170BD56F82530FD
:100ED00098470135EEE756F8253098470135F2E797
:100EE000A8990008A8990008A8990008AC990008DA
:100EF00002440346934200D1704703F8011BF9E70F
:100F00002DE9FF4755EC104B0D9FDDF830A0002D6B
:100F10000E4691461946B8BF22462B4627F02007B9
:100F2000BBBF05F100431D4600232D23B8BF144667
:100F3000462F0B7004D0452F00D10136022100E06E
:100F4000032103AB019302AB00933246534645ECB9
:100F5000104B00F0BDFC472F804602D119F0010F65
:100F600026D0462F08EB060911D198F80030302B17
:100F70000AD10022002320462946FFF7A5FD18B913
:100F8000C6F10106CAF80060DAF800309944002280
:100F9000002320462946FFF797FD38B93022039BEE
:100FA0004B4505D2591C03911A70F8E7CDF80C9007
:100FB000039B0E9AA3EB08034046136004B0BDE800
:100FC000F087F7B500290446BABF49422D232B23E9
:100FD000092904F8022B437020DD0DF107031F4699
:100FE0000A2691FBF6F506FB15113031092D03F8A1
:100FF000011C03F1FF32294609DC3031023B02F8C3
:10100000011CBB42224604D3101A03B0F0BD1346A4
:10101000E7E713F8012B04F8012BF2E7302319441A
:101020008370021DC170EFE72DE9F04F8DB00C46C3
:10103000DDF8588016461F46054601F001FA0368A0
:1010400004931846FFF7C4F800230A93D8F8003039
:101050000590073323F0070303F1080294F818A062
:10106000D4F800B0C8F80020D3E90023C4E9122363
:10107000D4E9128929F000430793CDF818804FF086
:10108000FF32A74BDDE90601FFF750FD70BB4FF0C3
:10109000FF32A34BDDE90601FFF72AFD30BB00223A
:1010A000002340464946FFF719FD10B12D2384F86F
:1010B00043309C4A9C4BBAF1470F8CBF90469846F0
:1010C00003232BF00402236122604FF000090097F4
:1010D00033460BAA2146284600F0E6F9013040F0DD
:1010E0008D804FF0FF300DB0BDE8F08F42464B468B
:1010F00040464946FFF71AFD10B18C4A8C4BDAE79F
:1011000061684B1C4BF480620AA83ED106236360E1
:101110000023CDE9020309AB009349EC108B0DF1DC
:1011200023032260CDF804A061682846FFF7E8FE9B
:101130000AF0DF03472B804609D1099BD81C02DB4C
:101140006268934247DDAAF1020A5FFA8AFABAF1AD
:10115000650F099924D80139524604F150000991CC
:10116000FFF72FFF0A9A1318012A8146236102DC38
:101170002268D10701D5013323619DF82330002B6C
:10118000A5D02D2384F84330A1E7BAF1670F00F012
:101190007781BAF1470FBBD10029B9D10123B6E756
:1011A000BAF1660F19D1002963680CDD216113B90A
:1011B0002268D20702D501330B442361099BA36542
:1011C0004FF00009D9E713B92268D00701D50233DF
:1011D000F3E70123F1E74FF0670ADDE909329342B3
:1011E00005DB22682361D107E8D50133E5E7002B51
:1011F000D4BFC3F1020301231344DEE723685A0579
:1012000007D42369424631462846B84701302BD1DE
:1012100067E7BAF1650F40F2DC8000220023D4E9D1
:101220001201FFF751FC002833D00123414A314617
:101230002846B84701303FF454AFDDE909239A420C
:1012400002DB2368D8070FD5DDE9042331462846A1
:10125000B84701303FF445AF4FF0000804F11A09D8
:101260000A9B013B434509DC23689B0700F103818E
:10127000E0680B9B9842B8BF184634E701234A4602
:1012800031462846B84701303FF42BAF08F101083A
:10129000E6E7099B002B2BDC0123264A3146284632
:1012A000B84701303FF41DAF099B23B90A9B13B91E
:1012B0002368D907D8D5DDE9042331462846B84745
:1012C00001303FF40EAF4FF0000904F11A0A099BF8
:1012D0005B424B4501DC0A9B94E7012352463146B1
:1012E0002846B84701303FF4FCAE09F10109EEE7AA
:1012F0000A9AA36D9A42A8BF1A46002A914607DDB2
:101300001346314642462846B84701303FF4E9AE1D
:1013100004F11A034FF0000B29EAE979069315E06E
:10132000FFFFEF7FB8930008B4930008C093000854
:10133000BC930008C49300080123069A314628464E
:10134000B84701303FF4CDAE0BF1010BD4F858A0F3
:10135000AAEB09035B45EFDCDDE909239A42D0449F
:1013600015DB2368DA0712D40A9B0999A3EB0A025A
:10137000A3EB010A9245A8BF9246BAF1000F0EDC1A
:101380004FF000082AEAEA7A04F11A0919E0DDE9C7
:10139000042331462846B8470130E5D1A1E653463B
:1013A000424631462846B8470130E9D199E6012343
:1013B0004A4631462846B84701303FF492AE08F11C
:1013C0000108DDE909239B1AA3EB0A034345EEDC80
:1013D0004AE70A9A012A01DCDB073AD50123424693
:1013E00031462846B84701303FF47BAEDDE904239F
:1013F00031462846B847013008F101083FF471AE84
:101400000A9B002203F1FF3AD4E912010023FFF7FF
:101410005BFBC8B95346424631462846B8470130BF
:101420000ED15EE60123524631462846B8470130C8
:101430003FF457AE08F101080A9B013B4345F1DC3C
:101440004B4604F15002DEE64FF0000804F11A0AA0
:10145000F2E70123DFE701234A4631462846B84731
:1014600001303FF43EAE08F10108E3680B9A9B1A85
:101470004345F0DCFCE64FF0000804F11909F4E7FD
:1014800000293FF48BAE0023CDE9020309AB0093A2
:1014900049EC108B2260CDF804A00DF123032846FF
:1014A000FFF72EFD804648E62DE9F04791461F469E
:1014B0008A680B69DDF820809342B8BF1346C9F8EB
:1014C000003091F8432006460C4612B10133C9F8AA
:1014D00000302368990642BFD9F800300233C9F8BA
:1014E0000030256815F0060507D104F1190AE368F4
:1014F000D9F800209B1AAB4228DC94F843302268CC
:10150000003318BF012392062DD404F1430239465B
:101510003046C047013020D02368E568D9F8002064
:1015200003F00603042B08BFAD1AA36822690CBFA1
:1015300025EAE57500259342C4BF9B1AED184FF0CC
:1015400000091A344D451AD1002008E00123524603
:1015500039463046C047013003D14FF0FF30BDE877
:10156000F0870135C3E7E1185A1C302081F84300A9
:10157000224494F8451082F843100233C5E7012352
:10158000224639463046C0470130E6D009F101090C
:10159000D8E700002DE9F04301F1430C0C46097E29
:1015A00085B06E291746064698460C9A00F0B3801F
:1015B00022D8632936D00AD8002900F0B9805829EA
:1015C00000F0838004F1420584F8421032E064297F
:1015D00001D06929F6D120681368050603F10401DA
:1015E0002AD51B681160002B03DA2D225B4284F898
:1015F00043206F480A2239E0732900F09D8008D803
:101600006F2920D07029DDD1236843F020032360A7
:1016100003E0752917D07829D4D1782384F8453090
:10162000644855E01368191D1B68116004F14205F8
:1016300084F8423001238CE01B68116010F0400FE9
:1016400018BF1BB2CFE713682568181D1060280665
:1016500001D51B6802E06806FBD51B8854486F293A
:1016600014BF0A220822002184F843106568A5608F
:10167000002DC0F29580216821F004012160002B2B
:101680003DD1002D40F08E806546082A0BD123689D
:10169000DB0708D5236962689A42DEBF302305F86C
:1016A000013C05F1FF35ACEB05032361CDF800806B
:1016B0003B4603AA21463046FFF7F6FE01304DD1E6
:1016C0004FF0FF3005B0BDE8F083394884F845108D
:1016D000136821681D1D1B6815600A060BD5CA0713
:1016E00044BF41F0200121601BB9226822F0200292
:1016F00022601022B7E74D0648BF9BB2EFE7654670
:10170000B3FBF2F102FB1133C35C05F8013D0B465C
:101710000029F5D1B9E7136825686169181D1060C3
:1017200028061B6801D5196002E06A06FBD51980FE
:10173000002323616546B9E71368191D11601D6810
:10174000626800212846FEF74BFD08B1401B60602F
:1017500063682361002384F84330A7E723692A469E
:1017600039463046C0470130AAD023689B0713D4BE
:10177000E068039B9842B8BF1846A3E701234A4696
:1017800039463046C04701309AD00135E368039AA4
:101790009B1AAB42F2DCEBE7002504F11909F5E7EF
:1017A000002BACD1037884F8423004F142056CE799
:1017B000C6930008D79300082DE9F74F03690C6919
:1017C000A3428046C0F28280013C01F114074FEA37
:1017D000840C00F1140657F8245056F8240006EB48
:1017E0000C03013507EB0C090193B0FBF5F595B33C
:1017F0004FF0000A3846B646D34650F8042B93B251
:1018000005FB03A34FEA134A9BB2ABEB0303120C95
:10181000DEF800B005FB02A213FA8BF34FEA124A7E
:101820001FFA82FBDEF80020CBEB124202EB2342D0
:101830009BB243EA024381454FEA224B4EF8043BF8
:10184000DBD256F80C3033B9019B043B9E421A465A
:1018500030D3C8F81040404601F030F8002825DBAE
:10186000013530464FF0000C57F8042BD0F800E05B
:1018700093B2ACEB0303120C13FA8EF3C2EB1E42CD
:1018800002EB23429BB243EA0243B9454FEA224CA2
:1018900040F8043BE8D256F8242006EB84032AB92A
:1018A000043B9E421A460BD3C8F81040284603B0AA
:1018B000BDE8F08F1268043B002ACAD1013CC5E79D
:1018C0001268043B002AEFD1013CEAE70020EEE772
:1018D0002DE9F04F57EC106B97B0456A069104461E
:1018E0000B921293DDF88080CDE900673DB910209E
:1018F00000F0B4FD6062C0E901550560C560636A2F
:10190000196851B15A684A60012393408B602046A0
:1019100000F0F3FD636A00221A603B1EBBBF23F098
:101920000043019300230122ACBFC8F80030C8F87F
:101930000020AF4BDDF8048033EA080314D1129A7B
:1019400042F20F731360009B23B9C8F31300002801
:1019500000F04285219BDFF8ACB2002B00F04485FB
:101960000BF1030300F03EBDDDE900670022002318
:1019700030463946FFF7A8F8814668B1129A01232C
:101980001360219B002B00F024859A4B219A03F1D0
:10199000FF3B136000F028BD14AA15A947EC106B9B
:1019A000204601F002F8C8F30A550490002D7CD0BF
:1019B000C7F3130343F07F5BB2464BF4401BA5F221
:1019C000FF35CDF84C9000228B4B50465946FEF720
:1019D0005BFC81A3D3E90023FEF70EFE80A3D3E9CD
:1019E0000023FEF753FC064628460F46FEF79AFDF5
:1019F0007DA3D3E90023FEF7FFFD02460B463046E8
:101A00003946FEF743FC06460F46FFF7A5F80022CD
:101A10008246002330463946FFF760F848B1504609
:101A2000FEF780FD32463B46FFF74EF808B90AF153
:101A3000FF3ABAF1160F59D8704901EBCA01DDE936
:101A40000023D1E90001FFF767F8002850D00AF120
:101A5000FF3A00230F93149B5D1BB5F1010849BFAA
:101A6000C5F10103002305934FF0000858BF05930B
:101A7000BAF1000F3EDB0023D044CDF838A0079325
:101A8000069B092B00F29080052BC4BF043B0693F4
:101A9000069BA3F10203CCBF00250125032B00F216
:101AA0008F80DFE803F07D7F3171DDE914531D4441
:101AB00005F23240202813DDC0F14000009B08FAF7
:101AC00000F805F2124023FA00F048EA0000FEF7A1
:101AD00019FD01238246A1F1F87B013D139372E7C2
:101AE000009BC0F1200003FA00F0F0E70123B1E70A
:101AF0000F90B0E7059BA3EB0A030593CAF100031F
:101B0000079300230E93BBE701230A930B9B002B43
:101B100059DD02939946666A00227260042202F13E
:101B200014009842716853D9204600F0B2FC636AF1
:101B30003060B9F10E0FD3F800B000F2E680002D4E
:101B400000F0E3809DED007BBAF1000F8DED107B7E
:101B500074DD2A4A0AF00F0302EBC30393ED007B06
:101B60004FEA2A16F0068DED087B65D5244BDDE99A
:101B70001001D3E90823FEF769FECDE9000106F064
:101B80000F0603251E4F4CE001230A930B9B534481
:101B900003F1010902934B46012BB8BF0123BAE7B9
:101BA0000023B2E70023F0E70125002306930A95FE
:101BB0004FF0FF3302939946002212230B92AAE7BB
:101BC00001230A93F4E70123029399461A46F5E7A5
:101BD000013171605200A2E761436F63A787D23F72
:101BE000B3C8608B288AC63FFB799F501344D33F0C
:101BF0000000F07FC59300080000F83F2094000823
:101C0000F8930008F1930008F10708D5DDE9080111
:101C1000D7E90023FEF7F0FCCDE908010135761085
:101C20000837002EF0D1DDE90823DDE90001FEF7D9
:101C30000DFECDE900011AE00225A3E700F0A08027
:101C4000CAF100069F4BA04F06F00F0203EBC20340
:101C5000D3E90023DDE91001FEF7CEFCCDE9000158
:101C6000361100230225002E7FD1002BE1D10F9BDE
:101C7000002B00F08780DDE900670022934B30469F
:101C80003946FEF72BFF00287CD0B9F1000F79D040
:101C9000029B002B35DD0AF1FF3308933946002201
:101CA0008B4B3046FEF7A8FCCDE90001029F0135C1
:101CB0002846FEF737FCDDE90023FEF79DFC0022F5
:101CC000844BFEF7E3FA0546A1F15076002F5DD173
:101CD0000022814BDDE90001FEF7D6FA2A463346A1
:101CE000CDE90001FEF718FF002840F088822A465F
:101CF00006F10043DDE90001FEF7F0FE002840F0A8
:101D00007C82DDE91023CDE90023159B002BC0F276
:101D10005081BAF10E0F00F34C816A4B03EBCA03FA
:101D200093ED007B0B9B002B8DED027B80F2D88026
:101D3000B9F1000F00F3D48040F05E820022664BC0
:101D400051EC170BFEF758FCDDE90023FEF7DAFE35
:101D50004F464E46002840F0348231230BF10105F6
:101D60008BF800300AF1010A2FE2F20705D5D7E916
:101D70000023FEF741FC013501237610083772E796
:101D8000022574E7CDF820A04F4691E74D4B03EBB9
:101D9000C70353E902010A9B002B47D002460B46BA
:101DA00000204E49FEF752FD2A463346FEF76CFAF4
:101DB000CDE90C015D46DDE90001FEF7CDFE0646EA
:101DC000FEF7B0FB02460B46DDE90001FEF75CFAC8
:101DD000303605F8016BDDE90C23CDE90001FEF793
:101DE0007DFE002863D1DDE9002300203749FEF79E
:101DF0004BFADDE90C23FEF771FE002840F0B780B6
:101E0000A5EB0B039F427FF77CAF0022304BDDE94F
:101E10000C01FEF7F1FB0022CDE90C012C4BDDE9B2
:101E20000001FEF7E9FBCDE90001C4E72A4633468D
:101E3000FEF7E2FBCDE90C010BEB07055E46DDE9A1
:101E40000001FEF789FE0746FEF76CFB30370246BD
:101E50000B46DDE90001FEF717FA06F8017BAE42FA
:101E6000CDE900014FF0000226D11C4BDDE90C0149
:101E7000FEF70CFA02460B46DDE90001FEF74CFEC8
:101E8000002874D1DDE90C2300201449FEF7FCF989
:101E900002460B46DDE90001FEF720FE00283FF474
:101EA00030AF15F8013C302B05F1FF3202D0DDF8E0
:101EB00020A04AE01546F4E7054BFEF79DFBCDE96F
:101EC0000001BCE720940008F89300080000F03FF0
:101ED0000000244000001C40000014400000E03FCF
:101EE000DDE900675D46DDE9022330463946FEF74D
:101EF000ADFCFEF731FE8046FEF714FBDDE9022360
:101F0000FEF77AFB02460B463046394608F13006AA
:101F1000FEF7BAF905F8016BA5EB0B06B1450246D1
:101F20000B4639D1FEF7B2F9DDE9022306460F462A
:101F3000FEF7F2FDC8B9DDE9022330463946FEF767
:101F4000C3FD10B118F0010F0FD10499204600F025
:101F5000D4FA0023129A2B700AF101031360219B1B
:101F6000002B00F041821D603EE2CDF820A015F864
:101F7000012C392A05F1FF3308D19B450AD1089B72
:101F80000133089330238BF800305B461A78013216
:101F90001A708CE71D46EAE700229B4BFEF72CFBEC
:101FA0000022002306460F46FEF78EFD00289AD039
:101FB000CBE70A9A002A00F08B80069A012A6EDC91
:101FC000139A002A67D003F23343079F059D059AB1
:101FD00001211A4420460592984400F02EFB064643
:101FE000002D0CDDB8F1000F09DD4545059A2B46A3
:101FF000A8BF4346D21A0592ED1AA8EB0308079B27
:10200000EBB10A9B002B67D08FB131463A46204690
:1020100000F0B2FB049A01460646204600F016FB8B
:1020200004990890204600F068FA089B0493079BE7
:10203000DA1B04D00499204600F09EFB0490012195
:10204000204600F0FAFA0E9B0746002B00F0D081E4
:102050001A460146204600F08FFB069B012B0746DF
:1020600040DC009B002B39D1019BC3F31303002BF1
:1020700036D1019B23F000431B0D1B052BB1059BA3
:102080000133059308F10108012307930E9B002BF0
:102090002AD1012030E0149BC3F1360395E7079B5A
:1020A00009F1FF37BB42BFBF079B0797FA1A0E9B88
:1020B000BBBF9B180E93DF1B0027B9F1000FB5BF04
:1020C000059B059DA3EB09054B46B8BF00237EE7A2
:1020D000079F059D0A9E83E7079AABE70023D4E795
:1020E000009BD2E7002307933B6907EB8303186942
:1020F00000F055FAC0F12000404410F01F0047D016
:10210000C0F12003042B3BDD059BC0F11C00034400
:10211000059305448044059B002B05DD1A46049970
:10212000204600F077FB0490B8F1000F05DD39463A
:102130004246204600F06EFB07460F9B53B33946DC
:10214000049800F0BBFB002824DA00230A2204993B
:10215000204600F0E9F90A9B04900AF1FF3A002BAF
:1021600000F04D81002331460A22204600F0DCF9C0
:10217000029B002B06464FDC069B022B4CDD11E038
:10218000C9D0059A1C331A4405921D449844C2E7ED
:102190000346F6E7B9F1000F38DC069B022B35DD6C
:1021A000CDF80890029B63B939460522204600F01D
:1021B000BBF901460746049800F080FB00283FF772
:1021C000CCAD0B9B5D466FEA030A4FF00009394620
:1021D000204600F092F9002E3FF4B7AEB9F1000F9F
:1021E00005D0B14503D04946204600F086F9314676
:1021F000204600F082F9A8E600273E46E1E7DDF838
:1022000020A03E46A9E500BF000024400A9BCDF86F
:102210000890002B00F0FA80002D05DD31462A469B
:10222000204600F0F7FA0646079B002B4CD0716859
:10223000204600F02EF9326902320546920006F17E
:102240000C010C3000F01AF901222946204600F05A
:10225000E1FA009BCDF814B003F00103B1460793F7
:10226000064639460498FFF7A7FA4946054600F1A5
:102270003008049800F022FB324600903946204690
:1022800000F036FBC368024603BB01460890049881
:1022900000F014FB089A034611462046089300F00C
:1022A0002CF9089BA3B9069A92B9079A82B9B8F19A
:1022B000390F29D0009B002B01DD05F13108059B6A
:1022C0005D1C83F8008082E73046C2E70123E3E724
:1022D000009A002A04DB25D1069A1ABB079A0ABB8A
:1022E000002BECDD01220499204600F093FA3946D8
:1022F000049000F0E3FA002803DCE0D118F0010FAD
:10230000DDD0B8F1390FD8D1059B059A5D1C392372
:10231000137015F8013C392B05F1FF324FD0013312
:10232000137054E7059A002B02F1010506DDB8F1A0
:10233000390FE9D008F10108059BC2E7029A05F8B8
:10234000018CA5EB0B03934221D000230A220499B0
:10235000204600F0E9F8B14504904FF000034FF03B
:102360000A024946204605D100F0DEF881460646BD
:10237000059576E700F0D8F83146814600230A2219
:10238000204600F0D1F80646F2E74FF0000901229E
:102390000499204600F03EFA3946049000F08EFA87
:1023A0000028B6DC02D118F0010FB2D115F8013CBB
:1023B000302B05F1FF327FF40AAF1546F6E793455F
:1023C00005D131230AF1010A8BF80030FFE61546EA
:1023D0009FE7DFF864B007E0219BDFF860B01BB136
:1023E0000BF10803219A1360584617B0BDE8F08F2F
:1023F000069B012B7FF735AE0E9B079349E6029BA8
:10240000002B03DC069B022B3FF7CCAE5D46394622
:102410000498FFF7D1F900F1300805F8018B029A12
:10242000A5EB0B039A42B0DD00230A220499204653
:1024300000F07AF80490EAE7C4930008E8930008F3
:10244000044B1B68186A044B002808BF1846F0307C
:10245000704700BF2C00002090000020024B014676
:10246000186800F04DBB00BF2C000020024B014655
:10247000186800F0F7BA00BF2C00002010B5431E0A
:102480000A44914200D110BD11F8014B03F8014FED
:10249000F7E770B5456A04460E463DB91020FFF7D0
:1024A000DDFF6062C0E901550560C560656AEB68E3
:1024B00083B1636ADB6853F82600B8B9012101FAD9
:1024C00006F56A1D9200204600F0BEFA60B1C0E930
:1024D00001650EE021220421204600F0B5FA636A6E
:1024E000E860DB68002BE4D1002070BD026843F88F
:1024F00026200023C0E90333F7E770B5446A064697
:102500000D463CB91020FFF7A9FF7062C0E90144F5
:102510000460C4603DB1736A6A68DB6853F82210D6
:10252000296043F8225070BD2DE9F0410D691F4626
:1025300006460C4601F1140C0023DCF8000081B2C1
:1025400002FB01710F0C000C02FB007089B2013319
:1025500001EB00419D424FEA10474CF8041BECDCB4
:10256000D7B1A368AB4212DC616830460131FFF796
:1025700090FF2269023204F10C01804692000C3077
:10258000FFF77CFF21463046FFF7B7FF444604EBD8
:10259000850301355F6125612046BDE8F081020CAD
:1025A00012040346B2B90304102013F07F4F04BF96
:1025B0001B02083013F0704F04BF1B01043013F0EE
:1025C000404F04BF9B000230002B06DB5B0003D5AD
:1025D000013070470020E8E720207047036813F0BF
:1025E000070201460BD0DA0723D4980749BF5B08DE
:1025F0009B0801200B605CBF0B600220704798B203
:10260000A8B91B0C102013F0FF0F04BF1B0A0830E1
:102610001A0704BF1B0904309A0704BF9B08023045
:10262000DA0702D45B0806D001300B607047104611
:10263000E9E7002070472020704710B50C460121C3
:10264000FFF727FF01224461026110BD2DE9F74F1A
:1026500014460A6923699A42B8BF0B468846BCBF34
:10266000A0461C46D8F81070D4F81090D8F808305E
:10267000D8F8041007EB0906B342B8BF0131FFF7E1
:1026800008FF00F1140505EB860E2B46002273456A
:1026900016D304F1140208F1140102EB890301EBD3
:1026A00087070093009B019293420CD8002E03DD14
:1026B0005EF8043D002B5DD0066103B0BDE8F08FED
:1026C00043F8042BE3E7B2F800B0BBF1000F23D0CE
:1026D0008946AC464FF0000859F8044BDCF800A0DE
:1026E000A3B21FFA8AFA0BFB03A34FEA144ADCF8E1
:1026F000004043444FEA14480BFB0A8404EB1344A4
:10270000E2469BB243EA04434F454FEA14484AF875
:10271000043B2BD8CCF80480019BB3F802A0043210
:10272000BAF1000F20D02B688946A8464FF0000B65
:10273000B9F800C0B8F802400AFB0C445C44C44637
:102740009BB243EA04434CF8043B59F8043BB8F805
:1027500004B01B0C0AFB03B303EB14434F454FEAD1
:10276000134B05D8C8F8043004359BE7D446B3E7CB
:10277000E046DDE7013E99E72DE9F843154612F002
:10278000030206460F4607D0013A214C002354F8B5
:102790002220FFF7C9FE0746AD1035D0746A3CB958
:1027A0001020FFF75BFE7062C0E901440460C46062
:1027B000D6F82480D8F808404CB940F27121304650
:1027C000FFF73BFF0023C8F80800044603604FF002
:1027D0000008EB070AD5394622463046FFF736FF98
:1027E000394681463046FFF788FE4F466D100BD0C4
:1027F000206838B9224621463046FFF727FF20607F
:10280000C0F800800446E4E73846BDE8F88300BF1E
:10281000E89400082DE9F0470C464FEA621A236954
:1028200049680AEB0309A3680746164609F1010542
:10283000AB4232DB3846FFF72CFE0023804600F126
:1028400014011A4653452BDB20692AEAEA7A04F17F
:10285000140316F01F0201EB8A0103EB800C25D054
:10286000C2F1200E00201E688A46964030434AF886
:10287000040B53F8040B9C4520FA0EF014D8486062
:1028800008B109F10205013D3846C8F8105021464B
:10289000FFF733FE4046BDE8F08701315B00C7E734
:1028A00041F823200133CDE75146DCE7043953F8E2
:1028B000042B41F8042F9C45F9D8E4E703690A6921
:1028C0009B1A30B50CD19200143014318418114485
:1028D00054F8045D51F8042D954203D005D301232B
:1028E000184630BDA042F3D3FAE74FF0FF33F7E7C5
:1028F0002DE9F0470D460746114628461446FFF7D6
:10290000DDFF061E08D131463846FFF7C2FD012320
:10291000C0E90436BDE8F087A4BF23462C463846FC
:102920006168A6BF1D4600260126FFF7B2FD2B6990
:10293000C660266905F1140904F1140202EB86074A
:1029400009EB830800F114054FF0000E52F804ABB8
:1029500059F8044B1EFA8AF1A3B2C91A230CC3EB2F
:102960001A4303EB214389B24FEA234EC84541EA9B
:102970000343944645F8043BE8D8BC4504D355F8D6
:10298000043D83B10661C5E75CF8041B1EFA81F3C0
:102990001A1402EB11429BB243EA02434FEA224E61
:1029A00045F8043BE9E7013EE9E72DE9F7430E4628
:1029B000012159EC108B1546FFF76BFDC9F30A5442
:1029C0000746C9F3130334BB0193B8F1000327D0C2
:1029D00002A840F8083DFFF701FE0099F0B1019A06
:1029E000C0F1200302FA03F30B43C2407B61019262
:1029F000019BBB61002B14BF022101213961C4B1CD
:102A0000A4F2334404443460C0F1350028603846F1
:102A100003B0BDE8F08343F48013D5E77961E7E7BD
:102A200001A8FFF7DBFD019B7B61012139612030AB
:102A3000E5E707EB8103A0F2324030601869FFF749
:102A4000AEFDC0EB4110E1E738B502FB01F42146D1
:102A500000F056F8054618B122460021FEF748FA64
:102A6000284638BD38B50546002945D051F8043C04
:102A70000C1F002BB8BFE41800F0BEF81F4A136803
:102A8000104633B9636014602846BDE8384000F052
:102A9000B4B8A3420CD921686218934204BF1A68E3
:102AA0005B68636004BF521822600460ECE7134661
:102AB0005A680AB1A242FAD919685818A0420BD133
:102AC00020680144581882421960DDD110685268AC
:102AD0005A6001441960D7E702D90C232B60D3E771
:102AE000206821188A4204BF11685268626004BFDE
:102AF000091821605C60C7E738BD00BF28020020CC
:102B000070B5CD1C25F0030508350C2D38BF0C25FC
:102B1000002D064601DBA94203D90C2333600020B7
:102B200070BD00F069F8214A1468214691B9204C23
:102B300023681BB9304600F03DF820602946304636
:102B400000F038F8431C24D10C233360304600F0E9
:102B500054F8E4E70B685B1B18D40B2B0FD90B6000
:102B6000CD50CC18304600F048F804F10B00231D7E
:102B700020F00700C31AD3D05A42E250D0E78C426B
:102B80004B6816BF636013600C46EBE70C46496860
:102B9000CCE7C41C24F00304A04205D0211A30461F
:102BA00000F008F80130CFD02560DBE728020020D4
:102BB0002C02002038B5064C002305460846236049
:102BC00000F030F9431C02D1236803B12B6038BDFB
:102BD000E002002082B001B901A942B14BB11378E3
:102BE0000B601278101C18BF012002B0704710460D
:102BF000FBE76FF00100F8E77047704749B1FF2A23
:102C000085BF8A2303600A704FF0FF3098BF012010
:102C100070470846704700000A4B10B50446186814
:102C200018B183690BB905F02BFD132C07D80648A2
:102C300050F83430013302D000EBC40010BD002046
:102C4000FCE700BF2C00002040020020F8B5431C28
:102C5000054609D105F0CEFC132406460027204680
:102C60003946ABBE044634602846F8BDF8B5054683
:102C700005F0C0FC13240646002720463946ABBEAB
:102C8000044634602846F8BD30B585B0CDE9010171
:102C90000392062401AD20462946ABBE04462046D9
:102CA000FFF7D4FF05B030BD70B50E461546FFF7EF
:102CB000B3FF044630B905F09DFC092303604FF0D3
:102CC000FF3070BD2A4631460068FFF7DDFF431C28
:102CD0001FBF6368281A1B186360F2E7F7B50C463C
:102CE0001646FFF799FF054640B905F083FC092316
:102CF00003604FF0FF34204603B0F0BD022E03D92D
:102D000005F078FC1623F3E7012E12D14368E4188E
:102D1000F6D42B680A26CDE900346F463046394692
:102D2000ABBE06463046FFF791FF0028E1DB6C6042
:102D3000E1E7022EEDD102AF036847F8083D0C260B
:102D400030463946ABBE06463046FFF77FFF431C90
:102D5000CFD00444DDE7FFF7C1BF30B585B0CDE982
:102D600001010392052401AD20462946ABBE04466D
:102D70002046FFF76BFF05B030BD70B50E46154617
:102D8000FFF74AFF044630B905F034FC092303601D
:102D90004FF0FF3070BD2A4631460068FFF7DDFF77
:102DA000021EF5DB6368A81A0344AA426360F1D1EE
:102DB0000020BDE87040FFF759BF37B502AD0224CF
:102DC00045F8040D20462946ABBE04462046FFF7D1
:102DD0003DFF03B030BD000038B50546FFF71CFFCE
:102DE000044630B905F006FC092303604FF0FF30BC
:102DF00038BD013D012D09D8094B9A681B699A42DB
:102E000004D14FF0FF3303600020F1E72068FFF7A3
:102E1000D4FF0028ECD14FF0FF332360E8E700BF78
:102E2000400200200D4B196810B5024609B90C4943
:102E300019601868694602448A4206D809490A4C52
:102E40000968A14208D08A4206D905F0D3FB0C23B9
:102E500003604FF0FF3010BD1A60FCE73002002025
:102E6000D80A0020FC010020ADDEFECA70B50C4679
:102E7000FFF7D2FE064630B905F0BCFB092303601C
:102E80004FF0FF3070BD636843F4005363604FF44C
:102E9000806363640C2528463146ABBE0546284650
:102EA000FFF7D4FE431C1CBF20610020EAE70B465D
:102EB00010B50021044658221846FEF719F80146BD
:102EC0002046BDE81040FFF7D1BF38B50D46044697
:102ED000582200212846FEF70BF82046002100F07A
:102EE00011F8431C04460BD06B6843F401436B603C
:102EF0002946FFF7BBFF05462046FFF76DFF2C462E
:102F0000204638BD2DE9F0472B4B96B082460E4641
:102F10000025984653F83540611C4FEAC50736D066
:102F20000135142DF6D105F065FB182303604FF031
:102F3000FF343CE0C6F3004440F20163B20748BFEF
:102F400044F002041E4218BF44F00404330748BF93
:102F500024F00404504648BF44F00804CDF800A013
:102F6000FDF736F9CDE90140012420464946ABBEC4
:102F70000446002C06DB4744002348F835407B60BC
:102F80002C4614E02046FFF771FE04460FE006F4DD
:102F90002063B3F5206FE946CCD149465046FFF790
:102FA00094FF0130C6D005F025FB112303602046B5
:102FB00016B0BDE8F08700BF400200202DE9F743BE
:102FC00007468846294800211546FFF79BFF2A46F9
:102FD000044600213846FDF78BFF631C15D02046C0
:102FE000FFF71AFE0C26814630464946ABBE064620
:102FF0003046FFF72BFE032802DD0338A84208DC29
:103000002046FFF7E9FE4FF0FF34204603B0BDE84D
:10301000F08304220DEB02012046FFF745FE032852
:10302000EEDD9DF80430532BEAD19DF80530482B96
:10303000E6D19DF80630462BE2D19DF80730422BB1
:10304000DED1012241462046FFF748FE0028D7DBAB
:103050002A4639462046FFF727FE05462046FFF759
:10306000BBFE2846FFF7F2FD0446CEE7FF950008B9
:1030700037B50A4D0A4C0021012201A829602260BF
:10308000FFF79CFF002807DD9DF8043003F00102E4
:1030900003F002032A60236003B030BD0002002069
:1030A0000402002010B5044C2268002A01DAFFF760
:1030B000DFFF206810BD00BF040200202DE9F04FA3
:1030C00085B0DFF8B090CDF804900323002403937B
:1030D0000DF104080294012528464146ABBE054681
:1030E000204E214A356023464FF0FF31144642F806
:1030F00033100133142BFAD1FFF7D4FF1B4DD0B19D
:103100004FF0030A0423CDF804900127CDF80CA05A
:10311000029338464146ABBE8346154BCDF804902A
:10312000C3F800B00823CDF80CA0029338464146FE
:10313000ABBE07462F602B68013302BF0C4B1B68E8
:103140002B603368236000266660FFF7ABFF30B169
:10315000074B1B68C4E902362B68C4E9043605B086
:10316000BDE8F08F38020020400200203402002029
:103170003C0200201596000870B5FFF74DFD0925AB
:10318000044620B905F036FA0560204670BD284691
:103190002146ABBE0446012CF7D005F02BFA0024E3
:1031A0000646132528462146ABBE05463560ECE7AA
:1031B00010B504460E4B18784FF47A73B3FBF0F356
:1031C0000C4A1068B0FBF3F000F0D0F868B90F2C8F
:1031D00001D901200AE0002221464FF0FF3000F023
:1031E00069F8034B5C60002000E0012010BD00BFC7
:1031F000000000202800002008B50B4B1A6842F49C
:1032000000721A601A6842F480621A601A6842F406
:1032100080721A60032000F02FF80020FFF7C8FF2B
:1032200004F0A4FF002008BD003C0240034A1168DE
:10323000034B1B780B441360704700BFE40200206F
:1032400000000020014B1868704700BFE402002016
:1032500038B50446FFF7F6FF0546B4F1FF3F02D04C
:10326000044B1B781C44FFF7EDFF401BA042FAD330
:1032700038BD00BF0000002010B50446C31E042B5B
:103280000FD80A4AD36823F4E0631B041B0C240202
:1032900004F4E064234343F0BF6343F40033D3609A
:1032A00010BDA221024804F0A8FEEAE700ED00E00C
:1032B0001C96000870B505460C4616460F2A25D800
:1032C0000F2C28D81B4BDB68C3F30223C3F1070282
:1032D000042A28BF0422191D062921D9033B4FF0D7
:1032E000FF3101FA02F224EA02049C4001FA03F3DE
:1032F00026EA03063443002D14DB2401E4B205F171
:10330000604505F5614585F8004370BDBA210A485E
:1033100004F073FED4E7BB21074804F06EFED1E74A
:103320000023DCE705F00F052401E4B2034B5C55F4
:10333000EBE700BF00ED00E01C96000814ED00E094
:1033400010B5041E08DB04F01F026409012393403A
:10335000044A42F8243010BDCE21034804F04DFE4B
:10336000F1E700BF00E100E01C9600080138B0F171
:10337000807F0AD2064B5860064AF02182F823105B
:103380000020986007221A6070470120704700BF34
:1033900010E000E000ED00E02DE9F04782B080464B
:1033A0000E46B64B984223D003F5806398421FD057
:1033B00003F5806398421BD003F58063984217D0D1
:1033C00003F58063984213D003F5806398420FD0D1
:1033D00003F5806398420BD003F58063984207D0D1
:1033E00003F58063984203D0C321A54804F005FE8D
:1033F00033689AB212B11B0C1B041BB1C421A04844
:1034000004F0FBFD7368012B1ED9112B1CD0022B7D
:103410001AD0122B18D09B4A934215D002F5801275
:10342000934211D002F5801293420DD0A2F5F8120A
:10343000934209D002F58012934205D002F5801222
:10344000934201D0032B04D1B368022B06D8002489
:1034500045E0C5218A4804F0D0FDF5E7C62188483B
:1034600004F0CBFDF3E7EA21854804F0C6FD96E0C1
:10347000072300E000238B4003430232824941F8D6
:103480002230824B1A68FB4303EA0201706810F491
:10349000803F01D047EA02017C4A1160526803EA8A
:1034A0000201706810F4003F01D047EA0201774A38
:1034B0005160926803EA0201706810F4801F01D025
:1034C00047EA0201714A9160D2681340716811F4B1
:1034D000001F01D047EA02036C4AD36001340F2C6D
:1034E00000F2C9800125A54037682F40BD42F5D1C3
:1034F0007368022B01D0122B31D13369FBB1092B38
:103500001DD0012B1BD0022B19D0032B17D0042B5D
:1035100015D0052B13D0062B11D0072B0FD0082B5D
:103520000DD00A2B0BD00B2B09D00C2B07D00D2B59
:1035300005D00F2B03D0D721514804F05EFDE208DF
:10354000083258F8220004F0070399000F238B403B
:1035500020EA030033698B40034348F82230D8F84F
:1035600000204FEA440A4FF0030909FA0AF96FEA0A
:10357000090909EA0202736803F0030303FA0AF374
:103580001343C8F8003073685A1E012A03D9112B5F
:1035900001D0122B18D1F368032B3FF664AFD8F893
:1035A000082009EA0202F36803FA0AF31343C8F891
:1035B0000830D8F8042022EA05027368C3F3001526
:1035C000A5401543C8F80450D8F80C3009EA03099F
:1035D000B36803FA0AF343EA0903C8F80C307368C6
:1035E00013F0805F3FF47AAF00230193284B5A6CAD
:1035F00042F480425A645B6C03F480430193019B64
:10360000A208911C204B53F8210004F003039900F9
:103610000F238B4020EA0300184B98453FF42AAF54
:1036200003F5806398451AD003F58063984518D058
:1036300003F58063984516D003F58063984514D050
:1036400003F58063984512D003F58063984510D048
:1036500003F5806398453FF40BAF08230BE7012384
:1036600009E7022307E7032305E7042303E705230C
:1036700001E70623FFE602B0BDE8F0870000024044
:10368000589600080000111000380140003C01402D
:103690000038024070B5064615460C4629B1012D8A
:1036A00009D875B92404B46170BD40F2AF11064861
:1036B00004F0A3FCF3E74FF4D871034804F09DFC39
:1036C000EFE7B461F0E700BF5896000838B505464B
:1036D0000C4621B94FF4E371034804F08EFC6B698A
:1036E0005C406C6138BD00BF58960008F8B50668AC
:1036F000346A04F00F07C4F34343C4F30A14022BE3
:103700002ED16CB307EB8702D3000344596C39B355
:1037100005462246304602F06FFDBA003A44D30017
:103720002B445A6C22445A64DA6C2244DA6406EB65
:103730004713D3F810150B4A0A408AB1D3F8002575
:1037400022F0804242F00042C3F80025BB00D919A4
:10375000CA002A4492F8503083F0010382F85030B6
:10376000F8BD00BF0000F81FF0B585B09DF82860D7
:103770009DF82C70BDF830C090F89042012C2AD0F2
:103780000546012085F89002880000EB010E4FEA03
:10379000CE042C4484F83830A4F840C084F83910A2
:1037A00084F83F7002F07F0E84F83AE04FEAD21EB0
:1037B00084F83BE00844C4002C4484F83C60CDF815
:1037C00008C001970096286802F02FFE002385F8B4
:1037D000903205B0F0BD0220FBE790F89032012B4B
:1037E0000BD010B50446012380F89032006802F037
:1037F000D6FF002084F8900210BD02207047000020
:10380000002843D0F0B58BB006460368B3F1A04F53
:1038100006D01F4A934203D08A211E4804F0EDFBD4
:10382000032386F89132304604F082FD306802F0BE
:103830008DFC344654F810CB6D460FCC0FC50FCC21
:103840000FC594E8030085E80300371D97E80E00D4
:10385000604602F037FC0121306802F07DFC3446FE
:1038600054F810CB6D460FCC0FC50FCC0FC594E8A4
:10387000030085E8030097E80E00604602F0F6FCBE
:10388000012386F8913200200BB0F0BD0120704773
:103890000000044094960008F8B59DF81870BDF833
:1038A00020609DF824C08D000D44EC00044484F891
:1038B0003B2084F83F306FB901EB8105EC000444F4
:1038C000032584F84250032B00F2B380DFE803F0B5
:1038D0000AAA3E7B01EB8105EC000444022584F832
:1038E0004250F0E7012F40F0A480002A40F0A18070
:1038F00036B901EB8102D3000344012283F8512041
:1039000001EB8102D300034493F85130B3B901EBCA
:103910008102D3000344002283F8422001EB81029C
:10392000D300034493F85C30022B00F0828001EB5B
:103930008102D300034483F83DC07AE001EB8102A9
:10394000D3000344022283F84220E7E722BB01EBC5
:103950008102D300034493F85130ABB901EB8102EB
:10396000D3000344002283F8422001EB8102D300FC
:10397000034493F85C30022B5BD001EB8102D3004F
:10398000034483F83DC054E001EB8102D3000344BB
:10399000022283F84220E8E701EB8102D3000344CE
:1039A00093F850303BB901EB8102D300034400226D
:1039B00083F842203DE001EB8102D3000344022260
:1039C00083F8422035E0B2B901EB8102D300034411
:1039D00093F851303BB901EB8102D300034400223C
:1039E00083F8422025E001EB8102D3000344022248
:1039F00083F842201DE001EB8102D300034493F8D9
:103A000050303BB901EB8102D3000344002283F81C
:103A100042200EE001EB8102D3000344022283F82E
:103A2000422006E001EB8102D3000344002283F828
:103A300042208A005418E3000344079C5C649E649F
:103A4000002483F85C40DC6483F8391083F85D401F
:103A50001144CB0003F13801027C0144006802F0FC
:103A600055FDF8BD30B583B005460468D4F8403440
:103A70000193D4F840340093009B23F02E0300936D
:103A8000019B13F0020F07D0019B13F0010F25D10A
:103A9000009B43F002030093019B13F0080F10D02A
:103AA000009B43F008030093019B13F0040F31D0F7
:103AB000AB69022B19D0EB68032B26D0284604F003
:103AC00079FC019B13F0200F03D0009B43F02003EF
:103AD0000093009BC4F8403403B030BDA36923F0C9
:103AE0000053A36104F066FCD2E7019B03F4C023FA
:103AF000B3F5802F04D00121286802F02DFCDDE70A
:103B00000221286802F028FCD8E74EF66022C4F8AB
:103B10000424D3E7D4F8403423F02E03C4F840340F
:103B20002A68936943F000539361CAE7F8B50646E3
:103B30000D46076807EB411707F5A064A36813F06B
:103B4000040F41D00423A360E36843F00203E36061
:103B5000A36813F4007F6DD1A36813F0010F00F088
:103B60008A80336963B1AB005919CA003244916C41
:103B70002269C2F31202891A2B44DA003244D1645A
:103B8000AA002A44D3003344012283F85D20002197
:103B90009965A26093F83F30002B57D0022B55D087
:103BA000032B5DD1D7F8003543F00053C7F800353B
:103BB00005EB8502D3003344012283F85C202946BB
:103BC000304604F003FC4BE0A36813F0200F02D052
:103BD0002023A360BCE7A36813F0080F17D1A368E4
:103BE00013F4806FB4D0E36843F00203E36000682D
:103BF00002F0D5FD1023A36005EB8502D30033440A
:103C0000082283F85D204FF48063A360A0E7E36897
:103C100043F00203E36001EB8102D3000344052279
:103C200083F85D201023A3600823A360006802F0DE
:103C3000B6FD8DE7E36843F00203E3602946306890
:103C400002F0ADFD4FF40073A36013E0E36843F0AE
:103C50000203E3602946306802F0A1FD1023A3604F
:103C6000AB005919CA00324492F8503083F0010376
:103C700082F85030F8BDA36813F0020F50D0E3680B
:103C800023F00203E36005EB8502D300334493F88D
:103C90005D30012B20D0052B32D0062B01D0082B14
:103CA00021D1AA002A44D30033449A6D511C99654E
:103CB000032A2DD9AA002A44D300334400229A654E
:103CC000042283F85C20D7F8003523F0804343F0CA
:103CD0000043C7F8003506E005EB8502D300334406
:103CE000012283F85C200223A36005EB8502D30048
:103CF000334493F85C202946304604F067FBB9E76B
:103D000005EB8502D3003344052283F85C20EAE703
:103D100005EB8502D3003344022283F85C20D2E70E
:103D2000A36813F0800F26D1A36813F0100FA1D061
:103D300005EB8502D300334493F83F30032B32D098
:103D4000AB005919CA003244032182F85D101022D9
:103D5000A2601D4405FA01F31E4496F83F300BB1F2
:103D6000022B87D1D7F8003523F0804343F000437E
:103D7000C7F800357EE7E36843F00203E360AB0079
:103D80005919CA003244916D013191652B44DA0012
:103D90003244062382F85D302946306802F0FFFC89
:103DA0008023A36066E7E36843F00203E3602946EB
:103DB000306802F0F4FCC3E7F8B5046804EB411482
:103DC00004F5A064A36813F0040F24D10E46054641
:103DD000A36813F0200F25D02023A36001EB8102FC
:103DE000D300034493F83D30012B1AD18F007A1889
:103DF000D3000344042283F85D20E36843F0020308
:103E0000E360006802F0CBFCB919C8002844022323
:103E100080F85C3005E00423A360E36843F002030C
:103E2000E360F8BDA36813F0400F4CD1A36813F40E
:103E3000007F5FD1A36813F0010F66D1A36813F070
:103E4000080F77D1A36813F0100F40F08480A368A7
:103E500013F0800F40F09580A36813F4806F40F05A
:103E6000A180A36813F0020FDBD0E36823F0020304
:103E7000E36001EB8102D300034493F85D30012B32
:103E800000F0A480032B00F0C480042B00F0C98054
:103E9000052B00F0D180062B02D0082B40F0A1802A
:103EA000B2003244D3002B449A6D511C9965032A09
:103EB00040F2CA80282303FB065300229A6504229D
:103EC00083F85C208DE08B005918CA00024404215D
:103ED00082F85D103344DA00024400239365E368FE
:103EE00043F00203E3603146006802F058FC4023CF
:103EF000A36096E7E36843F00203E360006802F022
:103F00004EFC4FF40073A3608BE78F007A18D30048
:103F1000034400229A65E36843F00203E36000680B
:103F200002F03DFC0123A360B919C800284480F8C1
:103F30005D3076E70823A360E36843F00203E360A3
:103F4000006802F02CFC06EB8601C800284405231B
:103F500080F85D3065E78F007A18D30003440022B3
:103F60009A65E36843F00203E360006802F017FC1F
:103F7000B919C8002844032380F85D301023A360DA
:103F80004FE7E36843F00203E360006802F007FCD8
:103F900006EB8601CB002B44062283F85D208023AC
:103FA000A3603EE7E36843F00203E360006802F0C9
:103FB000F6FB1023A3604FF48063A36006EB860139
:103FC000CB002B44082283F85D202AE78A000A44AC
:103FD000D3000344012283F85C2093F83F30022B86
:103FE0000CD00223A36006EB8602D3002B4493F887
:103FF0005C203146284604F0E9F912E78A000A44B9
:10400000D300034493F8512082F0010283F8512039
:10401000E7E701EB8102D3000344022283F85C202E
:10402000DFE78A000A44D3000344022283F85C20BD
:10403000002283F83D20D4E701EB8102D300034442
:10404000052283F85C20CCE7282303FB06530222D9
:1040500083F85C20C5E7F8B504460568284602F0F9
:10406000E3F8012800D0F8BD206802F0D9F8002854
:10407000F9D0206802F0D4F810F4001F03D02368B0
:104080004FF400125A61206802F0CAF810F4801F41
:1040900003D023684FF480125A61206802F0C0F800
:1040A00010F0806F03D023684FF080625A6120685F
:1040B00002F0B6F810F0020F02D0236802225A6113
:1040C000206802F0ADF810F0005F25D1206802F002
:1040D000A7F810F0807F31D1206802F0A1F810F02D
:1040E000080F2FD1206802F09BF810F0007F30D12C
:1040F000206802F095F810F0100FB4D02268936990
:1041000023F0100393612046FFF7F0FA22689369C9
:1041100043F010039361A6E7D5F8403423F02E0353
:10412000C5F84034204604F04BF90121206802F024
:1041300013F923684FF000525A61C7E72046FFF792
:1041400091FCC9E7204604F02FF9236808225A6140
:10415000C8E7206802F014FB0746002604E0F1B22D
:104160002046FFF729FE0136A368B3420FD9012389
:10417000B3403B42F7D005EB4613D3F8003513F4B8
:10418000004FECD0F1B22046FFF7D0FCEBE72368FC
:104190004FF000725A61ABE738B590F89032012BBE
:1041A0000ED00446012580F89052006801F0C8FF47
:1041B0002946206802F00AF9002084F8900238BDF0
:1041C0000220FCE790F89032012B0BD010B504468A
:1041D000012380F89032006802F0FCFB002084F894
:1041E000900210BD0220704708B5006802F0D4F8B4
:1041F00008BD01EB8101CB00184490F85C007047CA
:1042000001EB8101CB001844C06C704708B5006811
:1042100002F006F908BD08B5006802F0F8F808BD1C
:10422000002800F0EB8010B504460368744A9342FE
:104230000CD002F58062934208D002F5806293426E
:1042400004D04FF4B7716F4803F0D7FE6368013BA9
:104250006D4A934267D8A36813B1B3F5804F68D114
:10426000E36823F47F7323F00303002B67D12369F2
:10427000B3F5804F02D0B3F5404F66D16369012B8F
:1042800069D8A36933F0FE036BD1E3690BB1402B0E
:104290006DD1236A0BB1802B6FD194F83D30002B88
:1042A00071D0242384F83D302268136823F0010381
:1042B000136001F005F8554BA3FB00239B0C22680B
:1042C00053606168524A914263D801332268136295
:1042D00063684F4A934266D85B00B0FBF3F0C0F3CB
:1042E0000B03032B00D804202368D861E369216AFB
:1042F00022680B4313602369E16822680B439360D3
:104300006369A16922680B43D3602268136843F094
:104310000103136000202064202384F83D302063D3
:1043200084F83E0010BD40F26F11364803F065FE80
:1043300091E74FF4B871334803F05FFE90E740F225
:104340007111304803F059FE91E74FF4B9712D48CF
:1043500003F053FE92E740F273112A4803F04DFE3A
:104360008FE74FF4BA71274803F047FE8DE740F21C
:104370007511244803F041FE8BE74FF4BB712148CF
:1043800003F03BFE89E784F83C30204603F0E6FC6E
:1043900087E74FF4967202FB03F31E4AA2FB032346
:1043A0009B09013392E7A16889B903EB4302B0FB93
:1043B000F2F2C2F30B02B2FA82F25209E2B991B9F7
:1043C00003EB4303B0FBF3F040F400408CE703EB56
:1043D000830202EB8202B0FBF2F2C2F30B02B2FAEA
:1043E00082F25209EAE703EB830303EB8303B0FB9A
:1043F000F3F040F4404077E7012075E70120704773
:1044000000540040CC9600087F1A060083DE1B4350
:10441000A0860100D34D6210704708B5436A9A1C0C
:10442000426202681B88D360438D013B9BB2438587
:10443000438D9BB203B108BD0268536823F0A0030B
:104440001B041B0C5360012380F84130FFF7E4FF8D
:10445000F1E7704708B50368DA68C36A991CC1625E
:104460001A80438E013B9BB24386438E9BB203B1BD
:1044700008BD0268536823F060031B041B0C5360E3
:10448000012380F84130FFF7E4FFF1E770470000B7
:10449000002800F0268170B504460368924A9342D2
:1044A00007D002F58062934203D0E3218F4803F0E6
:1044B000A4FD63684BB1B3F5807F06D0B3F5007FF0
:1044C00003D0B3F5407F40F08280A3683BB1102B4E
:1044D00005D0202B03D0302B01D0B02B7CD1E3684A
:1044E000012B03D9032B01D0052B7AD12369B3F516
:1044F000007F01D0002B79D16369A3F5FA517C4A82
:10450000914201D9022B76D1A3690BB1082B77D147
:10451000E369012B79D8022584F84150754B636318
:10452000204603F071FC2268D36923F47B6323F0F7
:104530000F03D36123681D622368DD696369022B61
:1045400000F08280E368002B64D02026A368202B33
:1045500000D87600012001F025F82369B3F5007F2B
:104560005AD0B0FBF6F000EB800043006269B3FB69
:10457000F2F30533604AA2FB0323DB0803F00102D8
:104580009B1AC3F34F0311029A1EFD2A5ED82269BB
:104590000A43216813430B626268A168E068238BB9
:1045A00003439BB20B439BB213439BB243F40063A0
:1045B0001D432368DD61236A012B50D8236A012B38
:1045C00053D000206064012384F8413070BDE421A1
:1045D000464803F012FD78E7E521444803F00DFD5D
:1045E0007DE7E621414803F008FD7FE7E7213F48EA
:1045F00003F003FD80E7E8213C4803F0FEFC83E77D
:10460000E9213A4803F0F9FC82E7EA21374803F050
:10461000F4FC80E7102699E7E36853B1B600B0FBDD
:10462000F6F000EB800043006269B3FBF2F3053360
:10463000A0E7F600B0FBF6F000EB800043006269F3
:10464000B3FBF2F3053395E700219DE7636C43F07C
:10465000100363642046FFF719FF0120B6E74FF40B
:10466000B671224803F0C9FCA8E7244B63632268B3
:104670001D4B9A421ED04FF04022D36923F47B6336
:1046800023F00F03D3612268174B9A4214D04FF0E6
:104690004022022313622268134B9A420ED04FF03D
:1046A0004022D0696168B1F5007F09D0B9B94FF4F3
:1046B000807607E0124AE0E7114AEAE7104AF0E79D
:1046C0004FF48076A168E568238B2B439BB20B43A4
:1046D0009BB2334343F400630343D36171E7002685
:1046E000F0E70120704700BF003800400497000841
:1046F000C0CE020005470008CDCCCCCC2149000833
:104700000034004010B584B00446026893680393F7
:1047100090F84130DBB2042B06D094F84130DBB284
:10472000032B2ED004B010BD039B13F0010F03D058
:10473000536813F0400F21D1039B13F0400FECD0CE
:1047400023685A6812F0200FE7D05A6822F06002FE
:104750001204120C5A60002301932368DA68019254
:104760009B680193019B012384F84130636C43F003
:10477000020363642046FFF789FECEE7FFF76AFE77
:10478000DAE7039B13F0020F04D023685B6813F091
:10479000800F1FD1039B13F0080FC3D023685A6802
:1047A00012F0200FBED05A6822F0A0021204120CA0
:1047B0005A600023029323689B680293029B0123A3
:1047C00084F84130636C43F0040363642046FFF7D0
:1047D0005DFEA7E72046FFF720FEDBE770470000FD
:1047E00008B5E9B9436A9A1C426202681B88D36023
:1047F000438D013B9BB24385438D9BB24BB902680D
:10480000536823F0A0031B041B0C5360438E9BB220
:1048100003B108BD012380F84130FFF7DFFFF8E75F
:10482000436A9A1C42621A880168134B99421ED04F
:104830004FF04023DA60438D013B9BB24385438DAB
:104840009BB2002BE5D102680B4B9A4212D04FF07D
:104850004022536823F0A0035360438E9BB2002B89
:10486000D7D1012380F84130FFF7B8FFD1E7A3F596
:104870008063DFE7014AECE7003800400034004085
:1048800008B5E9B90368DA68C36A991CC1621A807D
:10489000438E013B9BB24386438E9BB24BB9026869
:1048A000536823F060031B041B0C5360438D9BB2C1
:1048B00003B108BD012380F84130FFF78FFFF8E70F
:1048C0000268154B9A4222D04FF04023DA68C36A3F
:1048D000991CC1621A80438E013B9BB24386438E72
:1048E0009BB2002BE5D102680B4B9A4212D04FF0DD
:1048F0004022536823F060035360438D9BB2002B2A
:10490000D7D1012380F84130FFF768FFD1E7A3F545
:104910008063DBE7014AECE70038004000340040E8
:1049200010B584B0044603689A6803927C4A9342A7
:104930005DD04FF040218A680292DA6902F4407239
:10494000B2F5007F04D0DA6912F4407F40F0818034
:10495000039A12F0020F03D05B6813F0800F48D166
:10496000029B13F0010F09D022686D4B9A4245D08B
:104970004FF040235B6813F0400F42D1029B13F0CD
:10498000400F09D02268664B9A423FD04FF0402337
:104990005A6812F0200F3CD1039B13F0080F24D06B
:1049A00023685A6812F0200F1FD05A6822F0A00224
:1049B0001204120C5A602268594B9A4247D04FF0A9
:1049C0004022536823F0600353600023019323685F
:1049D0009B680193019B012384F84130636C43F091
:1049E000040363642046FFF751FD04B010BD4D4938
:1049F000A1E700212046FFF7F3FEB1E7A3F58063AE
:104A0000B8E701212046FFF73BFFB7E7A3F5806336
:104A1000BEE75A6822F060025A602268536823F0A9
:104A2000A0031B041B0C5360002300932368DA6867
:104A300000929B680093009B012384F84130636CD3
:104A400043F0020363642046FFF720FDA4E7354AE4
:104A5000B7E7029B13F0020F03D04B6813F0800FEF
:104A60004FD1039B13F0010F04D023685B6813F050
:104A7000400F4BD1039B13F0400F1ED023685A68A0
:104A800012F0200F19D05A6822F060021204120CA2
:104A90005A602268224B9A423DD04FF04022536820
:104AA00023F0A0035360012384F84130636C43F08A
:104AB000020363642046FFF7E9FC029B13F0080F32
:104AC00093D02268164B9A4227D04FF040235A6861
:104AD00012F0200F89D05A6822F0A0025A60226892
:104AE000536823F060031B041B0C5360012384F8FC
:104AF0004130636C43F0040363642046FFF7C6FC57
:104B000073E701212046FFF76BFEAAE7002120464C
:104B1000FFF7B6FEAEE7034AC1E7A3F58063D6E729
:104B20000038004000340040002800F03C8270B59E
:104B300082B0044603680F2B39D8236813F0010FA5
:104B40004DD063682BB1B3F5803F02D0B3F5A02FF1
:104B500032D1A54B9B6803F00C03042B36D0A24B3B
:104B60009B6803F00C03082B2BD06368B3F5803FE0
:104B70005FD0B3F5A02F62D09B4B1A6822F480322D
:104B80001A601A6822F480221A606368002B60D0D1
:104B9000FEF758FB0546944B1B6813F4003F1ED1EB
:104BA000FEF750FB401B6428F5D9032000E2F821F2
:104BB0008E4803F022FAC0E7FD218C4803F01DFA6D
:104BC000C7E7894B5B6813F4800FCED0864B1B6818
:104BD00013F4003F03D06368002B00F0E6812368E4
:104BE00013F0020F67D0E368012B41D823691F2B14
:104BF00044D87D4B9B6813F00C0F4AD07A4B9B68CE
:104C000003F00C03082B3FD0E368002B77D0784BE0
:104C100001221A60FEF716FB0546734B1B6813F062
:104C2000020F63D1FEF70EFB401B0228F5D90320CB
:104C3000BEE16D4A136843F480331360A5E76A4B05
:104C40001A6842F480221A601A6842F480321A60AC
:104C50009BE7FEF7F7FA0546634B1B6813F4003F2A
:104C6000BDD0FEF7EFFA401B6428F5D903209FE181
:104C700040F22F115D4803F0C0F9B7E74FF4987187
:104C80005A4803F0BAF9B4E7574B5B6813F4800F46
:104C9000BAD1554B1B6813F0020F04D0E368012B07
:104CA00001D0012084E1504A136823F0F803216900
:104CB00043EAC1031360236813F0080F49D0636906
:104CC000012B2ED8636993B34A4B01221A60FEF779
:104CD000B9FA0546444B5B6F13F0020F39D1FEF76A
:104CE000B1FA401B0228F5D9032061E13E4A13685E
:104CF00023F0F803216943EAC1031360DBE73C4B6F
:104D000000221A60FEF79EFA0546374B1B6813F027
:104D1000020FD0D0FEF796FA401B0228F5D90320E7
:104D200046E14FF4B871314803F067F9CAE7314BF7
:104D300000221A60FEF786FA05462B4B5B6F13F0D4
:104D4000020F06D0FEF77EFA401B0228F5D9032099
:104D50002EE1236813F0040F00F08780A368012B75
:104D600001D9052B38D1204B1B6C13F0805F39D152
:104D7000002301931C4B1A6C42F080521A641B6C86
:104D800003F080530193019B01251B4B1B6813F417
:104D9000807F33D0A368012B44D0052B48D0124B21
:104DA0001A6F22F001021A671A6F22F004021A67C2
:104DB000A368002B46D0FEF745FA06460A4B1B6F48
:104DC00013F0020F4FD1FEF73DFA801B41F28833FA
:104DD0009842F3D90320EBE04FF4CE71034803F07F
:104DE0000CF9C0E70025D0E7003802403C970008E6
:104DF00000004742800E4742007000406E4A136830
:104E000043F480731360FEF71DFA06466A4B1B6875
:104E100013F4807FBED1FEF715FA801B0228F5D966
:104E20000320C5E0654A136F43F001031367BFE732
:104E3000624B1A6F42F004021A671A6F42F00102C5
:104E40001A67B5E7FEF7FEF906465C4B1B6F13F0D9
:104E5000020F08D0FEF7F6F9801B41F28833984222
:104E6000F3D90320A4E0002D3BD1A369022B3ED847
:104E7000A369002B00F09B80504A926802F00C025C
:104E8000082A00F09780022B79D1E36913B1B3F5BA
:104E9000800F32D1236A3F2B35D8636A323BB3F59A
:104EA000BF7F36D8A36A022B05D0042B03D0062B74
:104EB00001D0082B33D1E36A023B0D2B35D8404B90
:104EC00000221A60FEF7BEF905463C4B1B6813F042
:104ED000007F30D0FEF7B6F9401B0228F5D9032039
:104EE00066E0364A136C23F080531364BDE740F24A
:104EF000DF11344803F081F8BAE74FF4F471314818
:104F000003F07BF8C6E740F2E9112E4803F075F88C
:104F1000C3E74FF4F5712B4803F06FF8C2E740F296
:104F2000EB11284803F069F8C5E74FF4F6712548FE
:104F300003F063F8C3E7E369226A1343626A43EA52
:104F40008213A26A5208013A43EA0243E26A43EA40
:104F500002631A4A53601A4B01221A60FEF772F973
:104F60000446164B1B6813F0007F06D1FEF76AF962
:104F7000001B0228F5D903201AE0002018E0104B8E
:104F800000221A60FEF75EF904460C4B1B6813F012
:104F9000007F06D0FEF756F9001B0228F5D9032042
:104FA00006E0002004E001207047012000E000201E
:104FB00002B070BD0120FBE70070004000380240E5
:104FC000600047423C970008324B9B6803F00C039B
:104FD000042B5CD0082B01D02F4870472DE9F04BF3
:104FE0002C4B5A6802F03F025B6813F4800F2BD001
:104FF000284B5B68C3F388131E4600275C0100251D
:10500000E41A65EB0705A90141EA9461A001001BC0
:1050100061EB0501CB0043EA5073C400A01943EBD8
:1050200007014B0243EAD0534402204619460023AD
:10503000FBF7BAFD174B5B68C3F3014301335B0019
:10504000B0FBF3F0BDE8F08B124B5B68C3F3881341
:105050001E4600275C010025E41A65EB0705A9013F
:1050600041EA9461A001001B61EB0501CB0043EA1A
:105070005073C400A01943EB07018B0243EA90531D
:105080008402204619460023FBF78EFDD2E7034831
:10509000704700BF003802400024F40000127A007C
:1050A000002800F0F98070B504460D460368013B06
:1050B0000E2B11D8072D15D8794B1B6803F00F0361
:1050C000AB4215D2EBB2764A1370136803F00F03AC
:1050D000AB420DD0012070BD4FF41471714802F045
:1050E0008CFFE7E740F251216E4802F086FFE3E7CC
:1050F000236813F0020F29D013F0040F04D06A4A7A
:10510000936843F4E0539360236813F0080F04D0CE
:10511000654A936843F460439360A3687BB1802B36
:105120000DD0902B0BD0A02B09D0B02B07D0C02BCB
:1051300005D0D02B03D0E02B01D0F02B33D15A4A2D
:10514000936823F0F003A1680B439360236813F086
:10515000010F42D06368032B2BD86368012B2ED03C
:105160009A1E012A32D9504A126812F0020F00F03A
:1051700095804D498A6822F0030213438B60FEF745
:1051800061F80646484B9B6803F00C036268B3EB7A
:10519000820F22D0FEF756F8801B41F288339842E6
:1051A000F0D9032097E74FF41D713E4802F025FF28
:1051B000C5E740F27B213B4802F01FFFCDE73A4AAA
:1051C000126812F4003FD4D1012084E7364A1268F5
:1051D00012F0007FCDD101207DE7314B1B6803F039
:1051E0000F03AB4209D9EAB22D4B1A701B6803F0CA
:1051F0000F03AB4201D001206DE7236813F0040FC9
:1052000014D0E3685BB1B3F5805F08D0B3F5A05F5D
:1052100005D0B3F5C05F02D0B3F5E05F30D1224ACC
:10522000936823F4E053E1680B439360236813F021
:10523000080F15D023695BB1B3F5805F08D0B3F5D3
:10524000A05F05D0B3F5C05F02D0B3F5E05F1DD11C
:10525000154A936823F46043216943EAC1039360CC
:10526000FFF7B2FE104B9B68C3F303130F4AD35CE6
:10527000D8400F4B18600020FDF79AFF00202AE766
:1052800040F2B921074802F0B8FEC8E74FF4307188
:10529000044802F0B2FEDBE70120704701201AE764
:1052A000003C02403C9700080038024098930008F8
:1052B00028000020014B1868704700BF280000201C
:1052C00008B5FFF7F7FF044B9B68C3F38223034A3B
:1052D000D35CD84008BD00BF00380240A893000846
:1052E00008B5FFF7E7FF044B9B68C3F34233034A5B
:1052F000D35CD84008BD00BF00380240A893000826
:1053000030B583B004460368013B062B1ED82368E2
:1053100013F0050F46D0A368023B052B1CD8636829
:10532000323BB3F5BF7F1DD8984B00221A60FDF7C2
:1053300089FF0546964B1B6813F0006F18D0FDF7E8
:1053400081FF401B0228F5D903201CE140F6DD1146
:10535000904802F052FEDAE740F6E4118D4802F080
:105360004CFEDCE740F6E5118A4802F046FEDBE73A
:105370006268A3681B0743EA8213854AC2F8843037
:10538000824B01221A60FDF75DFF0546804B1B68CA
:1053900013F0006F06D1FDF755FF401B0228F5D929
:1053A0000320F0E0236813F0020F00F0EB80E368C5
:1053B000B3F5807F7ED0B3F5007F7BD0764A9342F1
:1053C00078D002F58032934274D002F58032934255
:1053D00070D002F5803293426CD002F58032934255
:1053E00068D002F58032934264D002F58032934255
:1053F00060D002F5803293425CD002F58032934255
:1054000058D002F58032934254D002F58032934254
:1054100050D002F5803293424CD002F58032934254
:1054200048D002F58032934244D002F58032934254
:1054300040D002F5803293423CD002F58032934254
:1054400038D002F58032934234D002F58032934254
:1054500030D002F5803293422CD002F58032934254
:1054600028D002F58032934224D002F58032934254
:1054700020D002F5803293421CD002F58032934254
:1054800018D002F58032934214D002F58032934254
:1054900010D002F5803293420CD002F58032934254
:1054A00008D002F58032934204D040F616213948E4
:1054B00002F0A3FD00230193354B1A6C42F0805299
:1054C0001A641B6C03F080530193019B334A1368E9
:1054D00043F480731360FDF7B5FE05462F4B1B6840
:1054E00013F4807F06D1FDF7ADFE401B0228F5D9ED
:1054F000032048E0264B1B6F13F4407312D0E26880
:1055000002F440729A420DD0214B1A6F22F440727D
:10551000234901200860002008601A671B6F13F000
:10552000010F13D1E36803F44072B2F5407F1ED03F
:10553000174A936823F4F813936015490B6FE268D8
:10554000C2F30B0213430B6700201CE0FDF77AFE49
:1055500005460F4B1B6F13F0020FE3D1FDF772FEF0
:10556000401B41F288339842F3D903200BE00849ED
:105570008A6822F4F81223F0704323F44073134333
:105580008B60DAE7002003B030BD00BF68004742FF
:1055900000380240749700080003020000700040C9
:1055A000400E474201282AD1174B9B6813F4000391
:1055B00003D0012B25D115487047134B5B6813F4BA
:1055C000800F14D0104B5B6803F03F031048B0FB12
:1055D000F3F00D4AD2F88430C3F3881300FB03F0D4
:1055E000D2F88430C3F30273B0FBF3F07047064B7C
:1055F0005B6803F03F030748B0FBF3F0E9E70020E6
:1056000070470020704700BF003802400080BB0098
:1056100000127A000024F400F8B505460F4616463D
:105620001C463BE02CB1FDF70DFE069BC01AA042C4
:1056300034D32A68536823F0E00353606B68B3F5F2
:10564000827F0BD0AB6AB3F5005F14D0012385F8DD
:105650005130002385F85030032027E0AB68B3F5C4
:10566000004F02D0B3F5806FECD12A68136823F0A5
:1056700040031360E6E72A68136823F400531B0411
:105680001B0C13602A68136843F400531360DDE7B2
:105690000123B34209D0B4F1FF3FC3D12B689B680B
:1056A00037EA0303F4D00023F3E70020F8BD10B578
:1056B00082B0044600920B4600228021FFF7ACFF27
:1056C000034610B9184602B010BD636D43F02003C5
:1056D00063650323F6E70000002800F0C08010B5E2
:1056E000044603685F4A93420CD0A2F57842934285
:1056F00008D002F58062934204D04FF487715A4873
:1057000002F07BFC636813B1B3F5827F6BD1A368B1
:105710002BB1B3F5806F02D0B3F5004F69D1E368C8
:10572000B3F5006F01D0002B69D1A369B3F5007FF9
:1057300003D013B1B3F5802F67D1E3696BB1082BA8
:105740000BD0102B09D0182B07D0202B05D0282BDD
:1057500003D0302B01D0382B5DD1236A0BB1802BC5
:105760005FD1636A0BB1102B61D1636A33B92369CE
:105770000BB1022B61D16369012B64D80023A362B2
:1057800094F85130002B64D0022384F85130226801
:10579000136823F0400313606368A2681343E26850
:1057A00013432269134362691343A26902F400722E
:1057B0001343E2691343226A1343A16A22680B432D
:1057C0001360638B03F00403616A22680B43536028
:1057D0002268D36923F40063D3610020606501234C
:1057E00084F8513010BD40F20F111F4802F005FC43
:1057F0008DE74FF488711C4802F0FFFB8FE740F201
:105800001111194802F0F9FB8FE74FF4897116481E
:1058100002F0F3FB91E740F21311134802F0EDFBA5
:105820009BE74FF48A71104802F0E7FB99E740F2DA
:1058300015110D4802F0E1FB97E74FF48C710A480F
:1058400002F0DBFB97E740F21911074802F0D5FBA5
:1058500094E784F85030204602F012FC94E70120CF
:10586000704700BF00300140B09700082DE9F043B9
:1058700085B004460F46164699460C9D8368F3B9D9
:1058800094F85030012B00F01381012384F850303C
:10589000FDF7D8FC804694F85130DBB26268012BEA
:1058A0001BD0B2F5827F10D00223012284F8512050
:1058B000002284F85020184605B0BDE8F08340F27D
:1058C0003A317C4802F099FBDAE7A268002A40F0FE
:1058D000E780042B01D00223E7E7002F00F0E280ED
:1058E000002E00F0E180B9F1000F00F0DF8094F8A5
:1058F0005130DBB2012B2BD000236365A663A4F8E3
:105900003E90A4F83C902763A4F83690A4F8349015
:105910002364636423681A6812F0400F03D11A6885
:1059200042F040021A60E368B3F5006F14D0636878
:105930001BB1E38E9BB2012B07D1236817F8012B13
:105940001A73E38E013B9BB2E3864FF0010961E0DD
:10595000052384F85130CFE763681BB1E38E9BB217
:10596000012B07D1236837F8022BDA60E38E013B65
:105970009BB2E3864FF0010913E0E38F9BB26BB15A
:1059800023689A6812F0010F08D0DB6826F8023B02
:10599000E38F013B9BB2E3874FF00109B5F1FF3F75
:1059A0001CD1E38E9BB21BB9E38F9BB2002B55D069
:1059B000B9F1000FE1D0E38E9BB2002BDDD023685C
:1059C0009A6812F0020FD8D037F8022BDA60E38E13
:1059D000013B9BB2E3864FF00009CEE7FDF732FCB6
:1059E000A0EB0800A842DCD303235EE7E38F9BB261
:1059F0006BB123689A6812F0010F08D0DB6833702E
:105A0000E38F013B9BB2E38701364FF00109B5F10B
:105A1000FF3F1BD1E38E9BB213B9E38F9BB2EBB177
:105A2000B9F1000FE2D0E38E9BB2002BDED02368E9
:105A30009A6812F0020FD9D03A781A73E38E013BBC
:105A40009BB2E38601374FF00009CFE7FDF7FAFB81
:105A5000A0EB0800A842DDD3032326E7CDF80080A1
:105A60002B46012202212046FFF7D6FD08B1032371
:105A70001BE7424629462046FFF719FE034618B1A8
:105A800020236365012310E7A268002A7FF40DAF8D
:105A900003922268D168039192680392039A04E703
:105AA000022302E7012300E70123FEE60123FCE6CF
:105AB000022300E7B09700082DE9F8430446426846
:105AC000B44B9A4200F29C80E3681BB1B3F5005FCF
:105AD00040F09C80236933B1B3F5806F03D0B3F5F8
